:100000000C94E5150C9416160C9416160C941616F2
:100010000C9416160C9416160C9416160C941616B0
:100020000C9416160C94BDCA0C94BDCA0C94BDCA8F
:100030000C9416160C9416160C9416160C94161690
:100040000C9416160C94914A0C9416160C941616D1
:100050000C9416160C9416160C9484870C94F7C9FD
:100060000C9416160C9464320C9416160C941616F6
:100070000C9416160C9416160C9416160C94161650
:100080000C9416160C9416160C9416160C94161640
:100090000C9416160C9416160C9416160C94161630
:1000A0000C9416160C9416160C9416160C94161620
:1000B0000C9416160C9416160C9416160C94161610
:1000C0000C9416160C9416160C9416160C94161600
:1000D0000C9416160C9416160C9416160C941616F0
:1000E0000C94161674C877C866C86AC870C8AEC8BB
:1000F0007BC87FC885C889C88DC893C897C89BC866
:10010000AEC8A1C8A5C8A9C813C918C91DC927C99F
:1001100031C9AAC93BC943C94BC955C95FC969C9D6
:1001200078C982C9AAC98CC996C9A0C968CD78CD39
:100130009CCDA0CDA9CDB8CDD5CDEBCD2CCF0DCEBE
:100140002CCF22CE2CCF46CE4CCE9CCEB7CECCCE12
:10015000D6CEF2CE12CF68E778E794E7ADE7C6E7F0
:10016000DFE7F8E711E8B9E82AE8B9E8B9E842E8D2
:10017000084AD73B3BCE016E84BCBFFDC12F3D6C0E
:1001800074319ABD56833DDA3D00C77F11BED9E474
:10019000BB4C3E916BAAAABE000000803F05A84C54
:1001A000CDB2D44EB93836A9020C50B99186880820
:1001B0003CA6AAAA2ABE000000803F004E414E493C
:1001C0004E495459494E46CDCCCC3D0AD7233C1715
:1001D000B7D13877CC2B329595E6241FB14F0A0062
:1001E0000020410000C84200401C4620BCBE4CCA52
:1001F0001B0E5AAEC59D7447322F4733206261648F
:1002000020706172616D65746572730A00205A3ADC
:10021000200020593A200042656420583A20004DC1
:1002200065736820706F696E742063616E6E6F74A1
:10023000206265207265736F6C7665640A00526592
:1002400073756D696E67207072696E740033442037
:100250005072696E7465722072656164792E004314
:100260006C69636B20746F20726573756D652E2EDB
:100270002E004E6F206D6F76652E00456E642066F1
:10028000696C65206C6973740A00426567696E2049
:1002900066696C65206C6973740A0050726F7465CE
:1002A000637465642050696E0A006F6E2E0A006FD9
:1002B00066662E0A00473236204465627567200064
:1002C000452569202573003344205072696E74659A
:1002D000722072656164792E004B494C4C45442E66
:1002E00020003344205072696E746572204F666638
:1002F0002E002F2F20007A5F6D696E3A2000795F03
:100300006D696E3A2000785F6D696E3A2000526523
:10031000706F7274696E6720656E6473746F70209D
:100320007374617475730A004D31343520533C6920
:100330006E6465783E206F7574206F662072616E02
:1003400067652028302D31290A0053657474696E61
:10035000672054726176656C20416363656C6572D9
:100360006174696F6E3A200053657474696E67201A
:100370005265747261637420416363656C65726178
:1003800074696F6E3A200053657474696E6720500B
:1003900072696E7420416363656C65726174696F24
:1003A0006E3A200053657474696E67205072696EEE
:1003B0007420616E642054726176656C20416363C1
:1003C000656C65726174696F6E3A2000205A002076
:1003D0005900580020204D61783A2000205A002012
:1003E0005900580020204D696E3A20004F6E2000C1
:1003F0004F666600536F667420656E6473746F7029
:10040000733A200000013637263FFF3C3D380EFF8F
:100410002B303A0CFFFF0B08FF0304FF1A1C18FFD8
:10042000FF084505FF42FFFFFFFFFFFF20643A0082
:1004300020693A0020703A0043290A0061626C6525
:100440006420286D696E2074656D702000436F6CA8
:10045000642065787472756465732061726520002C
:1004600023646566696E65202044454641554C54B9
:100470005F4B64200023646566696E6520204445F7
:100480004641554C545F4B69200023646566696E94
:1004900065202044454641554C545F4B7020005028
:1004A0004944204175746F74756E652066696E6984
:1004B00073686564212050757420746865206C61D0
:1004C0007374204B702C204B6920616E64204B6448
:1004D00020636F6E7374616E74732066726F6D202B
:1004E00062656C6F7720696E746F20436F6E66690A
:1004F0006775726174696F6E2E680A0050494420F6
:100500004175746F74756E65206661696C656421F0
:100510002074696D656F75740A00544845524D41E9
:100520004C2052554E4157415900546865726D61D7
:100530006C2052756E617761790048656174696EEF
:1005400067206661696C65640048656174696E67FF
:10055000206661696C656400504944204175746F80
:1005600074756E65206661696C6564212054656DE3
:10057000706572617475726520746F6F2068696749
:10058000680A00204B643A2000204B693A20002082
:100590004B703A20000A20436C61737369632050EA
:1005A0004944200A002054753A2000204B753A2017
:1005B00000206D61783A2000206D696E3A2000209D
:1005C000643A200020626961733A20004D657368C7
:1005D00020706F696E742063616E6E6F7420626547
:1005E000207265736F6C7665640A004D3432312079
:1005F000696E636F727265637420706172616D659C
:100600007465722075736167650A004F666673656D
:100610007473206170706C696564004572723A2071
:10062000546F6F206661722100546F6F2066617293
:100630002066726F6D207265666572656E636520F7
:10064000706F696E740A003A2000207A5F6D696EDF
:100650003A20202D3230207A5F6D61783A202032A6
:10066000300A0050726F6265205A204F66667365CB
:100670007400447269766572207265676973746587
:1006800072733A0A007332767362090073327673BA
:1006900061090031323043090031343343090031FC
:1006A00035304309003135374309006F7409006F55
:1006B00074707709007332676109007332676209E9
:1006C000006F6C6109006F6C6209007374737409C8
:1006D00000445256535441545553005374616C6C4A
:1006E00067756172642074687273002D737461722F
:1006F000740900687973746572697369730A2D658A
:100700006E640900626C616E6B2074696D65006FC8
:1007100066662074696D6509004F542070726577B4
:1007200061726E206861730A6265656E2074726919
:10073000676765726564004F5420707265776172F7
:100740006E005B6D6D2F735D090070776D0A7468C4
:10075000726573686F6C6409007473746570090066
:100760006D73746570730900737465616C746843AC
:10077000686F70007673656E7365090050574D2081
:100780007363616C650043532061637475616C0928
:1007900000486F6C642063757272656E74005275E8
:1007A0006E2063757272656E74004D4158206375DA
:1007B0007272656E7400524D532063757272656E6D
:1007C00074005365742063757272656E7400456EB3
:1007D00061626C65640900617869733A70776D5F76
:1007E0007363616C65207C7374617475735F72658B
:1007F00073706F6E73657C0A0009004E6F20636131
:100800007365206C696768740A0041637469766572
:100810002045787472756465723A2000556E6B6E6F
:100820006F776E20636F6D6D616E643A2022004DAC
:100830006573682056616C69646174696F6E2053DA
:10084000746F707065642E00696E206D6F76655FE1
:10085000746F282920666565645F76616C75652014
:10086000666F722058593A004C656176696E672050
:1008700047323600446F6E65205072696D696E674D
:1008800000446F6E65205072696D696E670046693D
:10089000786564204C656E677468205072696D6578
:1008A0002E00557365722D436F6E74726F6C6C659C
:1008B00064205072696D65002C2065793D00292007
:1008C0002D3E202865783D002C2073793D00204383
:1008D0006F6E6E656374696E6720776974682076E1
:1008E0006572746963616C206C696E652028737829
:1008F0003D002C2065793D0029202D3E202865787B
:100900003D002C2073793D0020436F6E6E6563744B
:10091000696E67207769746820686F72697A6F6E94
:1009200074616C206C696E65202873783D004C659D
:100930006176696E6720473236002C2079693D0068
:10094000202020446F696E6720636972636C6520A4
:1009500061743A202878693D003F53706563696689
:1009600069656420582C5920636F6F7264696E61E9
:100970007465206F7574206F6620626F756E647386
:100980002E0A003F28522965706561742076616CDB
:100990007565206E6F7420706C61757369626C652B
:1009A0003B206D757374206265206174206C6561F5
:1009B000737420312E0A003F537065636966696560
:1009C00064206E6F7A7A6C652074656D70657261F3
:1009D00074757265206E6F7420706C6175736962D6
:1009E0006C652E0A003F5370656369666965642013
:1009F00066696C616D656E742073697A65206E6FCF
:100A00007420706C61757369626C652E0A003F53C7
:100A10007065636966696564207072696D65206CD4
:100A2000656E677468206E6F7420706C6175736991
:100A3000626C652E0A003F53706563696669656480
:100A4000206E6F7A7A6C652073697A65206E6F7498
:100A500020706C61757369626C652E0A003F53707B
:100A6000656369666965642052657472616374695F
:100A70006F6E204D756C7469706C696572206E6F55
:100A80007420706C61757369626C652E0A003F5248
:100A9000657472616374696F6E204D756C746970F2
:100AA0006C696572206D7573742062652073706562
:100AB0006369666965642E0A003F53706563696601
:100AC000696564206C61796572206865696768741E
:100AD000206E6F7420706C61757369626C652E0A8C
:100AE000003F5370656369666965642062656420D0
:100AF00074656D7065726174757265206E6F7420B7
:100B0000706C61757369626C652E0A00473236201D
:100B1000636F6D6D616E6420737461727465642EB1
:100B20002057616974696E6720666F72206865611D
:100B30007465722873292E0A002045302000205A3F
:100B400020002059200020582000537465707065E3
:100B500072206472697665722063757272656E7454
:100B60003A0A0020204D383531205A005A2D507253
:100B70006F6265204F666673657420286D6D293A33
:100B80000A0020440020490020204D3330312050FD
:100B9000005049442073657474696E67733A0A00A3
:100BA00020460020420020480020204D31343520CE
:100BB00053004D6174657269616C2068656174757C
:100BC0007020706172616D65746572733A0A0020FD
:100BD000204D3432302053004175746F20426564DB
:100BE000204C6576656C696E673A0A00205A0020D1
:100BF000590020204D323036205800486F6D652056
:100C00006F66667365743A0A00204500205A00201A
:100C1000590020580020420020540020204D32303E
:100C200035205300416476616E6365643A20533C1D
:100C30006D696E5F66656564726174653E20543CE3
:100C40006D696E5F74726176656C5F66656564720E
:100C50006174653E20423C6D696E5F7365676D65CA
:100C60006E745F74696D655F75733E20583C6D618D
:100C7000785F78795F6A65726B3E205A3C6D617867
:100C80005F7A5F6A65726B3E20453C6D61785F6597
:100C90005F6A65726B3E0A002054002052002020DB
:100CA0004D323034205000416363656C657261746D
:100CB000696F6E2028756E6974732F7332293A201C
:100CC000503C7072696E745F616363656C3E205264
:100CD0003C726574726163745F616363656C3E202E
:100CE000543C74726176656C5F616363656C3E0A47
:100CF00000204500205A0020590020204D3230317C
:100D00002058004D6178696D756D20416363656C95
:100D100065726174696F6E2028756E6974732F73C4
:100D200032293A0A00204500205A0020590020208C
:100D30004D3230332058004D6178696D756D2066F5
:100D400065656472617465732028756E6974732FAC
:100D500073293A0A00204500205A0020590020201B
:100D60004D393220580053746570732070657220BD
:100D7000756E69743A0A0020204D323030204430BC
:100D80000A0020204D323030204400204469736135
:100D9000626C65640A0046696C616D656E742073EF
:100DA000657474696E67733A0020204D31343920C0
:100DB00043203B20556E69747320696E2043656C37
:100DC000736975730A002020473231202020203BB0
:100DD00020556E69747320696E206D6D0A0024F4CD
:100DE000D43050C38E20C2A24017828B7011127A69
:100DF000910D816CD90AA861E108C7586607615155
:100E000043061E4B5D05C145A7041A411104093D67
:100E10009803713931034036DB0265339102D430D7
:100E20005402802E1D02632CEE01752AC501B028E4
:100E3000A001102781018F2564012B244B01E022A2
:100E40003401AC211F018D200D01801FFC00841E88
:100E5000ED00971DDF00B81CD200E61BC600201B6A
:100E6000BC00641AB200B219A8000A19A0006A18DE
:100E70009900D117910040178B00B51684003116E8
:100E80007E00B31579003A157300C7146F0058142B
:100E90006A00EE1366008813630025135E00C71214
:100EA0005B006C12570015125400C11151007011F3
:100EB0004F0021114B00D61049008D1047004610FD
:100EC000440002104200C00F4000800F3E00420F5D
:100ED0003C00060F3B00CB0E3800930E37005C0E33
:100EE0003500270E3400F30D3200C10D3100900D96
:100EF0003000600D2E00320D2D00050D2C00D90C98
:100F00002B00AE0C2900850C29005C0C2700350C49
:100F100027000E0C2600E80B2400C40B2400A00BB5
:100F200023007D0B23005A0B2100390B2100180BE5
:100F30002000F80A1F00D90A1E00BB0A1E009D0AE5
:100F40001D00800A1D00630A1C00470A1B002C0AB2
:100F50001B00110A1A00F7091A00DD091900C4095B
:100F60001900AB091900920917007B0918006309E1
:100F700017004C09160036091600200916000A0948
:100F80001500F5081500E0081400CC081400B80896
:100F90001400A4081400900813007D0812006B08C8
:100FA00013005808120046081200340811002308E4
:100FB00011001208110001081100F0071000E007ED
:100FC0001000D0071000C0071000B0070F00A107E5
:100FD000100091070E0083070F0074070F006507CC
:100FE0000E0057070E0049070E003B070D002E07A5
:100FF0000E0020070D0013070D0006070D00F9066F
:101000000C00ED060D00E0060C00D4060C00C8062E
:101010000C00BC060C00B0060C00A4060B009906E0
:101020000C008D060B0082060B0077060B006C0689
:101030000B0061060A0057060B004C060A00420628
:101040000A0038060A002E060A0024060A001A06BC
:101050000A001006090007060A00FD050900F4054C
:101060000900EB050900E2050900D9050900D005D2
:101070000900C7050900BE050900B5050800AD0552
:101080000800A50509009C050800940508008C05CA
:101090000800840508007C050800740508006C053C
:1010A0000700650508005D050700560508004E05A8
:1010B000070047050700400508003805070031050F
:1010C00007002A050700230507001C050600160572
:1010D00007000F0507000805060002050700FB04CE
:1010E0000600F5040700EE040600E8040600E2042A
:1010F0000700DB040600D5040600CF040600C9047F
:101100000600C3040600BD040600B7040600B104CF
:101110000500AC040600A6040600A00405009B041C
:10112000060095040500900406008A040500850465
:101130000500800406007A040500750405007004AB
:1011400005006B04050066040500610405005C04ED
:10115000050057040500520405004D04050048042D
:101160000500430405003E0404003A04050035046C
:101170000500300404002C040500270404002304A7
:1011800005001E0404001A040400160405001104DE
:1011900004000D0404000904050004040400000414
:1011A0000400FC030400F8030400F4030400F0034B
:1011B0000400EC030400E8030400E4030400E0037B
:1011C0000400DC030400D8030400D4030400D003AB
:1011D0000400CC030400C8030300C503030024F487
:1011E00004D9201BC40C5C0E9804C4095F02650777
:1011F0007101F405F900FB04B30048048700C10342
:1012000069005803550003034500BE023A008402FA
:10121000310053022A002902250004022000E401C3
:101220001C00C8011900AF011700980114008401C7
:101230001300710110006101100051010E00430103
:101240000D0036010B002B010B0020010B001501D6
:1012500009000C01090003010800FB000800F3006D
:101260000800EB000700E4000600DE000600D800DE
:101270000600D2000600CC000500C7000500C20031
:101280000500BD000400B9000400B5000400B10071
:101290000400AD000400A9000400A5000300A200A2
:1012A00003009F0004009B000300980003009500CA
:1012B000020093000300900003008D0002008B00E9
:1012C0000300880002008600020084000300810001
:1012D00002007F0002007D0002007B000200790016
:1012E0000200770001007600020074000200720024
:1012F0000100710002006F0002006D0001006C002F
:1013000002006A0001006900020067000100660037
:10131000010065000100640002006200010061003C
:101320000100600001005F0002005D0001005C0040
:1013300001005B0001005A00010059000100580043
:101340000100570001005600010055000100540043
:101350000100530000005300010052000100510041
:101360000100500001004F0001004E0000004E003F
:1013700001004D0001004C0001004B0000004B003B
:1013800001004A0001004900010048000000480037
:101390000100470001004600000046000100450032
:1013A000000045000100440001004300000043002C
:1013B0000100420000004200010041000000410025
:1013C0000100400001003F0000003F0001003E001E
:1013D00000003E0001003D0000003D0001003C0017
:1013E00000003C0000003C0001003B0000003B000E
:1013F00001003A0000003A00010039000000390005
:1014000001003800000038000000380001003700FB
:1014100000003700010036000000360000003600F2
:1014200001003500000035000000350001003400E7
:1014300000003400000034000100330000003300DD
:1014400000003300010032000000320000003200D2
:1014500001003100000031000000310001003000C7
:10146000000030000000300001002F0000002F00BD
:1014700000002F0000002F0001002E0000002E00B1
:1014800000002E0001002D0000002D0000002D00A6
:1014900000002D0001002C0000002C0000002C009A
:1014A00000002C0001002B0000002B0000002B008E
:1014B00000002B0001002A0000002A0000002A0082
:1014C00000002A0001002900000029000000290076
:1014D0000000290000002900010028000000280069
:1014E000000028000000280000002800010027005C
:1014F0000000270000002700000027000000270050
:101500000100260000002600000026000000260042
:101510000000260001002500000025000000250035
:101520000000250000002500000025000100240027
:10153000000024000000240000002400000024001B
:10154000010023000000230000002300000023000E
:1015500000002300000023000000230001002200FF
:1015600000002200000022000000220000002200F3
:1015700000002200010021000000210000002100E5
:1015800000002100000021000000210000002100D7
:1015900001002000000020000000200000002000CA
:1015A00000002000000020000000200000002000BB
:1015B00001001F0000001F0000001F0000001F00AE
:1015C00000001F0000001F0000001F0001001E009F
:1015D00000001E0000001E0000001E0000004D382C
:1015E0003420582059205A2045006265640A002C96
:1015F0002073797374656D2073746F7070656421E6
:10160000204865617465725F49443A20004865610D
:1016100074696E67206661696C6564004865617411
:10162000696E67206661696C65640053442063617C
:101630007264206F6B0A006F70656E526F6F74205A
:101640006661696C65640A00766F6C756D652E69FC
:101650006E6974206661696C65640A005344206990
:101660006E6974206661696C0A006175746F256922
:101670002E67004D3234004D3233202573005772EF
:101680006974696E6720746F2066696C653A200022
:101690006F70656E206661696C65642C2046696CAC
:1016A000653A20006F70656E206661696C65642C18
:1016B0002046696C653A200046696C652073656C4C
:1016C00065637465640A002053697A653A200046B0
:1016D000696C65206F70656E65643A20006F706597
:1016E0006E206661696C65642C2046696C653A20E1
:1016F000002066696C653A2000646F696E67006659
:1017000072657368004E6F772000454E4420535534
:1017100042524F5554494E450A002220706F7300C3
:101720002220706172656E743A2200535542524F06
:101730005554494E452043414C4C207461726765B5
:10174000743A22004B494C4C45442E200074727967
:10175000696E6720746F2063616C6C207375622DF5
:1017600067636F64652066696C6573207769746868
:1017700020746F6F206D616E79206C6576656C7377
:101780002E204D4158206C6576656C2069733A00B7
:101790004572726F723A00436172642072656D6FB8
:1017A000766564004361726420696E736572746566
:1017B00064004578747275646572004D6F766520BB
:1017C0005A004D6F76652059004D6F7665205800A0
:1017D0005072657061726500496E697469616C6907
:1017E0007A6520454550524F4D00436F6E74726FBD
:1017F0006C00526573746F7265206661696C736109
:101800006665004C6F61642073657474696E6773FC
:1018100000496E697469616C697A6520454550526A
:101820004F4D0053746F72652073657474696E67F1
:10183000730046696C616D656E74004D6F74696FFD
:101840006E0054656D7065726174757265004D61EE
:10185000696E00507265686561742041425320636F
:101860006F6E66005072656865617420504C41204F
:10187000636F6E66005049442D44005049442D4426
:10188000005049442D49005049442D4900504944D5
:101890002D50005049442D500020022046616374B1
:1018A0000020022046616374002002204D61780010
:1018B0002002204D6178002002204D617800200236
:1018C000204D696E002002204D696E002002204DDF
:1018D000696E004F6666004F6E20004175746F742C
:1018E000656D700046616E2073706565642033001D
:1018F00046616E20737065656420330046616E201A
:10190000737065656420330046616E207370656591
:101910006420320046616E20737065656420320079
:1019200046616E2073706565642032004E6F7A7A6E
:101930006C65004E6F7A7A6C6500436F6E74726FDF
:101940006C0053746F72652073657474696E67738D
:10195000004E6F7A7A6C65004E6F7A7A6C65004E35
:101960006F7A7A6C650046616E20737065656400FD
:1019700046616E2073706565640046616E20737009
:101980006565640054656D7065726174757265009B
:10199000536C6565702E2E2E0020706F736974690C
:1019A0006F6E206F7574206F662072616E67652E92
:1019B0000A003F50726F626520002028445259523D
:1019C000554E2900473239204175746F20426564B5
:1019D000204C6576656C696E670028422961636BEF
:1019E00000284629726F6E7400285229696768744E
:1019F00000284C29656674003F2856296572626F7D
:101A00007365206C6576656C20697320696D706CF8
:101A100061757369626C652028302D34292E0A00A7
:101A2000426164205A2076616C75650A004E6F2011
:101A300062696C696E65617220677269640A00533D
:101A400044207072696E74696E67206279746520D3
:101A5000004E6F74205344207072696E74696E6713
:101A60000A0046696C652064656C657465643A00BB
:101A700044656C6574696F6E206661696C65642C81
:101A80002046696C653A20006F70656E206661695A
:101A90006C65642C2046696C653A200025697300EA
:101AA00025696D20256973002569682025696D20E9
:101AB00025697300256964202569682025696D20E2
:101AC00025697300256979202569642025696820C6
:101AD00025696D20256973005072696E74207469E0
:101AE0006D653A20006F6B00000022002500280081
:101AF0002B002E0031003400020100000501080116
:101B00000B01000020002300260029002C002F00DC
:101B10003200000100000301060109010505050569
:101B2000070508080808020202020A0A0808040455
:101B30000404010101010101010103030303030383
:101B40000303040707070C0C0C0C0C0C0C0C020212
:101B5000020206060606060606060B0B0B0B0B0B0F
:101B60000B0B07070A0A0A0A0A0A050505040404FA
:101B70000808010210202008081020401020408092
:101B80000201020108040201010204081020408041
:101B900080402010080402018004020180402010CF
:101BA0000804020108040201010204081020408018
:101BB0000102040810204080100804088010204012
:101BC000044080102040048000000A0B02090C0D24
:101BD0000E080703040100000000000000000000E0
:101BE00000000000000000000000000000000000F5
:101BF00000000000121110000000000000000000B2
:101C000000000000000000000000000000000000D4
:101C100000000000000000000000000000004B4930
:101C20004C4C45442E2000202D20496E76616C6975
:101C300064206578747275646572206E756D626576
:101C40007220210A002D2D2D2D2D2D007C4D61722D
:101C50006C696E7C002D2D2D2D2D2D0068747470F7
:101C60003A2F2F6D61726C696E66772E6F72670006
:101C7000687474703A2F2F6D61726C696E66772E7E
:101C80006F72670020312E312E38002020506C6199
:101C90006E6E657242756666657242797465733AF6
:101CA00020002046726565204D656D6F72793A207F
:101CB00000436F6D70696C65643A20417567202040
:101CC0003720323031380A00207C20417574686F2B
:101CD000723A20286E6F6E652C2064656661756CA3
:101CE0007420636F6E666967290A00323031372DC0
:101CF00031322D32352031323A303000204C617390
:101D00007420557064617465643A2000312E312E60
:101D1000380A004D61726C696E0020536F667477EB
:101D20006172652052657365740A0020576174639F
:101D300068646F672052657365740A002042726F91
:101D4000776E206F75742052657365740A002045A4
:101D5000787465726E616C2052657365740A005008
:101D60006F77657255700A0073746172740A00654A
:101D700072726F722077726974696E6720746F2057
:101D800066696C650A00456E6473746F7073202514
:101D90006320256320256320256300205A3A002014
:101DA000593A0020583A00656E6473746F7073205E
:101DB0006869743A2000446F6E6520736176696EBD
:101DC000672066696C652E0A004D323900526573D2
:101DD000656E643A20006F6B0020746F6F206C6F2B
:101DE0006E6720657874727573696F6E20707265A6
:101DF00076656E7465640A0020636F6C6420657894
:101E000074727573696F6E2070726576656E746535
:101E1000640A00627573793A207061757365642095
:101E2000666F7220696E7075740A00627573793A14
:101E30002070617573656420666F722075736572BA
:101E40000A00627573793A2070726F636573736903
:101E50006E670A004B494C4C45442E20004B494CC0
:101E60004C20636175736564206279204B494C4C4A
:101E700020627574746F6E2F70696E0A004B494C46
:101E80004C45442E20004B494C4C206361757365D2
:101E90006420627920746F6F206D75636820696EAD
:101EA0006163746976652074696D65202D206375A2
:101EB0007272656E7420636F6D6D616E643A20009E
:101EC00070012C0190012701B0012201C0011D0108
:101ED000F00118011002130130020E016002090125
:101EE00090020401C002FF000003FA004003F50065
:101EF0008003F000D003EB002004E6007004E10052
:101F0000E004DC004005D700C005D2004006CD004B
:101F1000D006C8008007C3003008BE00F008B90032
:101F2000C009B400B00AAF00B00BAA00D00CA500E5
:101F3000000EA000500F9B00C010960050129100A0
:101F400000148C00C0158700B0178200B0197D0006
:101F5000D01B7800001E730040206E0090226900A4
:101F6000F024640040275F0090295A00E02B5500C0
:101F7000102E500020304B0010324600E03341005C
:101F800090353C001037370070383200A0392D00F2
:101F9000B03A2800A03B2300603C1E00103D190011
:101FA000903D1400103E0F00703E0A00C03E050038
:101FB000003F0000403FFBFF803FF6FFC03FF1FFC6
:101FC0004572723A204D494E54454D50004D494E90
:101FD00054454D50207472696767657265640045A9
:101FE00072723A204D415854454D50004D4158545D
:101FF000454D502074726967676572656400202FD3
:102000000020403A0000000000010204040000002B
:102010001C1C0C0404040201000000000004081051
:102020000000000000001C1F11111F000000061915
:102030001803130C00040E1F041C000000000E13F4
:1020400015110E00001C10181705060500040A0AD9
:102050000A0A11110E0C12120C00000000001F15CC
:1020600011151F000025753A2530327500253032D4
:10207000753A25303275002D2D2D005344005A003D
:102080005900580043616E6E6F74206F70656E204A
:1020900073756264697220006563686F3A00544822
:1020A00045524D414C2052554E41574159005468BC
:1020B00065726D616C2052756E6177617900457251
:1020C000726F722077726974696E6720746F204531
:1020D0004550524F4D210A00290A0020627974654B
:1020E000733B20637263200053657474696E677379
:1020F0002053746F72656420280045737465707393
:102100002F6D6D004573746570732F6D6D005A737C
:10211000746570732F6D6D005A73746570732F6DD5
:102120006D005973746570732F6D6D00597374650C
:1021300070732F6D6D005873746570732F6D6D0023
:102140005873746570732F6D6D004D6F74696F6E89
:102150000053746570732F6D6D004A65726B00419A
:102160006363656C65726174696F6E0056656C6F50
:1021700063697479005A204F6666736574005A204B
:102180004F666673657400436F6E74726F6C0046C1
:10219000696C2E204469612E0046696C2E204469CA
:1021A000612E004F6666004F6E20004520696E204C
:1021B0006D6D3300436F6E74726F6C0043616E6EB1
:1021C0006F7420656E746572207375626469723A0B
:1021D0002000052E2E004D61696E00466C6F770061
:1021E000466C6F770046616E2073706565642033BE
:1021F0000046616E20737065656420330046616E31
:1022000020737065656420330046616E20737065CD
:10221000656420320046616E20737065656420320B
:102220000046616E2073706565642032004E6F7ADF
:102230007A6C65004E6F7A7A6C65005370656564E0
:10224000005370656564005370656564004D616995
:102250006E004D34323800507265686561742050EC
:102260004C4100436F6F6C646F776E00507265680D
:10227000656174204142530044697361626C65205A
:102280007374657070657273004D383400536574F3
:1022900020686F6D65206F666673657473004265B4
:1022A00064204C6576656C696E67004732380A4772
:1022B0003239004175746F20686F6D6500473238A0
:1022C000004D6F76652061786973004D61696E001D
:1022D0004D6F76652058004D6F76652059004D6F23
:1022E0007665205A004578747275646572004D6F8A
:1022F000766520302E316D6D004D6F766520316D25
:102300006D004D6F76652031306D6D004D6F7665D7
:102310002061786973004578747275646572004D48
:102320006F7665205A004D6F76652059004D6F76A7
:102330006520580050726F62696E67206661696C33
:1023400065640A0050726F62696E67206661696C2D
:10235000656400205A3A200020593A200042656402
:1023600020583A200020746F6F206C6F6E672065D4
:102370007874727573696F6E2070726576656E74AD
:1023800065640A0020636F6C6420657874727573ED
:10239000696F6E2070726576656E7465640A004CB4
:1023A000696E65204E756D626572206973206E6F6F
:1023B00074204C617374204C696E65204E756D629B
:1023C00065722B312C204C617374204C696E653A18
:1023D00020004B494C4C45442E200053544F505044
:1023E00045442E20005072696E7465722073746FBC
:1023F000707065642064756520746F206572726FFB
:1024000072732E2046697820746865206572726F39
:102410007220616E6420757365204D3939392074DE
:102420006F20726573746172742E202854656D700C
:102430006572617475726520697320726573657465
:102440002E20536574206974206166746572207251
:10245000657374617274696E67290A004E6F204358
:102460006865636B73756D2077697468206C696E3D
:1024700065206E756D6265722C204C617374204C02
:10248000696E653A2000636865636B73756D206DD6
:1024900069736D617463682C204C617374204C699E
:1024A0006E653A20004D313130004D3331005344D8
:1024B0002072656164206572726F720A00446F6EEB
:1024C00065207072696E74696E672066696C650A52
:1024D0000020496E76616C69642065787472756459
:1024E00065722000000000000000000000000000F5
:1024F00000004843000048430000484342696C69BB
:102500006E656172204C6576656C696E67204772F6
:1025100069643A0A00434F4D4D554E494341544971
:102520004F4E0044525952554E004552524F52534D
:1025300000494E464F004543484F00486561746965
:102540006E6720646F6E652E0020573A004525693E
:10255000202573003344205072696E7465722072B6
:10256000656164792E00362531252A252325152518
:102570006F66660044454255473A004D313133207D
:102580005300205A3A0020593A0020436F756E7468
:1025900020583A0020453A00205A3A0020593A0083
:1025A000583A003A004361703A00454D455247455C
:1025B0004E43595F50415253455200434153455F8A
:1025C0004C494748545F4252494748544E4553533B
:1025D00000544F47474C455F4C49474854530053BC
:1025E0004F4654574152455F504F57455200425550
:1025F000494C445F50455243454E54004C45564566
:102600004C494E475F44415441005A5F50524F423B
:1026100045004155544F4C4556454C005052494E8B
:10262000545F4A4F420050524F4752455353004166
:1026300055544F5245504F52545F54454D500056DB
:102640004F4C554D455452494300454550524F4D0E
:102650000053455249414C5F584F4E5F584F4646D4
:10266000004649524D574152455F4E414D453A4D06
:1026700061726C696E20312E312E382028476974C2
:102680006875622920534F555243455F434F444577
:102690005F55524C3A68747470733A2F2F6769749F
:1026A0006875622E636F6D2F4D61726C696E46693D
:1026B000726D776172652F4D61726C696E20505238
:1026C0004F544F434F4C5F56455253494F4E3A314A
:1026D0002E30204D414348494E455F545950453AAC
:1026E0003344205072696E746572204558545255B7
:1026F0004445525F434F554E543A31205555494455
:102700003A63656465326132662D343161322D344D
:102710003734382D396231322D63353563363266C0
:1027200033363766660A00426564204C6576656C10
:10273000696E6720004661696C656420746F20656E
:102740006E61626C6520426564204C6576656C69DB
:102750006E670A0000002100240027002A002D00D7
:102760003000330001010000040107010A01506C30
:1027700065617365207265736574005052494E54EB
:1027800045522048414C544544005072696E74656E
:10279000722068616C7465642E206B696C6C2829EA
:1027A0002063616C6C6564210A00580058007472E3
:1027B00075650066616C73650074727565006661AD
:1027C0006C736500747275650066616C73650031C9
:1027D0003D2E313800303D2E333235002F3331005D
:1027E0002F3331002F333100747275650066616CD0
:1027F000736500202863616C63756C61746564297E
:10280000210A0020213D2000454550524F4D2043D4
:102810005243206D69736D61746368202D202873A5
:10282000746F726564292000290A0020627974653A
:10283000733B2063726320002073746F72656420A1
:1028400073657474696E67732072657472696576F6
:102850006564202800204D61726C696E3D563437E6
:10286000290A0028454550524F4D3D0045455052DC
:102870004F4D2076657273696F6E206D69736D615F
:10288000746368200048617264636F646564204407
:10289000656661756C742053657474696E67732026
:1028A0004C6F616465640A00B80B0000B80B00004F
:1028B00064000000102700000000964300009643CB
:1028C0000000A0400000C8410000C8420000C8420B
:1028D0000000C8430000BA425654726176206D6908
:1028E0006E005654726176206D696E0056547261A6
:1028F00076206D696E00566D696E00566D696E00CA
:10290000566D696E00566D6178204500566D617890
:10291000204500566D6178204500566D6178205A3B
:1029200000566D6178205A00566D6178205A005625
:102930006D6178205900566D6178205900566D619F
:1029400078205900566D6178205800566D617820C6
:102950005800566D61782058004D6F74696F6E0095
:10296000416D6178204500416D6178204500416DE1
:102970006178205A00416D6178205A00416D61787C
:10298000205900416D6178205900416D61782058CF
:1029900000416D6178205800412D74726176656C3C
:1029A00000412D74726176656C00412D7265747200
:1029B00061637400412D72657472616374004163D8
:1029C00063656C00416363656C004D6F74696F6E85
:1029D0000056652D6A65726B0056652D6A65726BCF
:1029E0000056652D6A65726B00567A2D6A65726BAA
:1029F00000567A2D6A65726B0056792D6A65726B86
:102A00000056792D6A65726B0056792D6A65726B76
:102A10000056782D6A65726B0056782D6A65726B68
:102A20000056782D6A65726B004D6F74696F6E0089
:102A300020617869732064726976657220637572AB
:102A400072656E743A2000747275650066616C730D
:102A5000650020617869732074656D7065726174BA
:102A6000757265207072657761726E207472696725
:102A700067657265643A2000207072657761726ED6
:102A800020666C616720636C65617265640A00652D
:102A90006E7175657565696E67202200000020C043
:102AA0000000A0C0000000000000484200004842B2
:102AB00000008040000000005761726E696E673A46
:102AC00020486F6D696E672042756D70204469768D
:102AD00069736F72203C20310A000202040000A0DA
:102AE000400000A0400000004000004843000048B3
:102AF0004300004843FFFFFF7C3C3E5E2B3D3F2FE1
:102B00005B5D3B2C2A225C00203D20307800580081
:102B100058005800580058005800580058005800F5
:102B2000580058000900486F6D65202573257325EE
:102B300073206669727374002066697273740A0088
:102B40005A0059005800486F6D6520005072696E38
:102B5000742070617573656400005072696E742032
:102B600061626F72746564005072696E742066727F
:102B70006F6D2053440053746F70207072696E74CF
:102B800000526573756D65207072696E74004E6FCA
:102B90002053442063617264005061757365207036
:102BA00072696E7400436F6E74726F6C0050726560
:102BB000706172650054756E6500496E666F2073B2
:102BC000637265656E0008FCD7FB11241FBECFEF52
:102BD000D1E2DEBFCDBF00E00CBF14E0A0E0B2E068
:102BE000EAE4FBE102E00BBF02C007900D92A030C7
:102BF000B107D9F725E1A0E0B4E001C01D92A43FE0
:102C0000B207E1F715E1C4EED5E100E006C0219777
:102C10000109802FFE010F94D20CC33ED10780E042
:102C20000807A9F70E94FDF60D94940D0C9400007E
:102C30002F923F924F925F926F927F928F929F92CC
:102C4000AF92BF92CF92DF92EF92FF920F931F93BA
:102C5000CF93DF93CDB7DEB7C057D1090FB6F89445
:102C6000DEBF0FBECDBF81E090E09093020F809356
:102C7000010F80916A0E8D3409F459C4843511F422
:102C80000C94C62C873411F00C94012D8091680EA1
:102C90009091690E8B31910509F4E4C1B4F484304C
:102CA00091053CF482309105C4F597FF2FC00C9438
:102CB000182D8430910509F4D1C14A9711F00C9474
:102CC000182D0E947C340C94182D8A32910509F439
:102CD00053C35CF48D31910509F459C20CF453C20D
:102CE0004E9709F458C20C94182D8B35910509F4B0
:102CF000C2C28C35910509F4C3C28A35910511F021
:102D00000C94182D109205040C94182D8091090232
:102D100081110C941F2D0C94182D2091090222234F
:102D200011F40C94182D11E0029709F010E00E94A4
:102D3000A27119821A821B821C821D821E821F822E
:102D4000188682E50E941F33882309F438C10E9447
:102D5000BD326B017C012091FC093091FD0940914D
:102D6000FE095091FF092CA73DA74EA75FA78090B1
:102D7000000A9090010AA090020AB090030A809184
:102D8000200A9091210AA091220AB091230A88ABCF
:102D900099ABAAABBBAB2091240A3091250A409194
:102DA000260A5091270A2CAB3DAB4EAB5FAB20E01F
:102DB00030E0A901C701B6010F94AA05882309F4E0
:102DC00014C12CA53DA54EA55FA568A979A98AA91E
:102DD0009BA90F94AA0581110BC0A50194016CA9B0
:102DE0007DA98EA99FA90F94AA05882309F4FDC087
:102DF00020E030E0A901C701B6010F94AA05881FA1
:102E00008827881F18130BC080E090E0A0E8BFE37C
:102E100028968CAF9DAFAEAFBFAF28970AC020E019
:102E200030E040E85FEB28962CAF3DAF4EAF5FAF90
:102E300028972CA53DA54EA55FA568A979A98AA9C3
:102E40009BA90F94E2096CAF7DAF8EAF9FAFA50138
:102E500094016CA97DA98EA99FA90F94E2092496DB
:102E60006CAF7DAF8EAF9FAF24972CAD3DAD4EAD17
:102E70005FADCA01B9010F940F062B013C012496E6
:102E80002CAD3DAD4EAD5FAD2497CA01B9010F9495
:102E90000F069B01AC01C301B2010F94E3090F942B
:102EA0004E0C68AF79AF8AAF9BAF20E030E040E0D6
:102EB0005FE30F940F062B013C01A7019601C701A8
:102EC000B6010F940F066B017C01A3019201C301AF
:102ED000B2010F940F069B01AC01C701B6010F941C
:102EE000E2090F944E0C9B01AC0128966CAD7DADB0
:102EF0008EAD9FAD28970F940F066B017C0128A91A
:102F000039A94AA95BA96CA57DA58EA59FA50F949B
:102F1000E30920E030E040E05FE30F940F062B016F
:102F20003C0124966CAD7DAD8EAD9FAD249790583D
:102F300028AD39AD4AAD5BAD0F94BF0A9B01AC0122
:102F4000C701B6010F940F069B01AC01C301B2018A
:102F50000F94E3092CA53DA54EA55FA50F94E209AA
:102F600069837A838B839C832CA93DA94EA95FA991
:102F7000C501B4010F94E30920E030E040E05FE3D5
:102F80000F940F062B013C0128AD39AD4AAD5BAD66
:102F90006CAD7DAD8EAD9FAD0F94BF0A9B01AC01B2
:102FA000C701B6010F940F069B01AC01C301B2012A
:102FB0000F94E309A50194010F94E20912C089E47A
:102FC0000E941F33882331F00E94BD3269837A83C7
:102FD0008B839C838AE40E941F33882331F00E94F4
:102FE000BD326D837E838F83988720E030E0A90116
:102FF00069817A818B819C810F94AA0581110BC014
:1030000020E030E0A9016D817E818F8198850F9449
:10301000AA05882349F0612FCE0101960E9422ED76
:103020000E9449310C94182DE0E9F7E184918F0159
:103030000F5F1F4F882321F00E945431F801F6CF13
:10304000E7EFF1E084918F010F5F1F4F882311F4A8
:103050000C94182D0E945431F801F4CF0E9456713F
:103060000C94182D0E944DE981110C94182D80E0CC
:1030700090E0A0E4B0E489839A83AB83BC838D8322
:103080009E83AF83B88780E090E0A0EAB1E48987AF
:103090009A87AB87BC8780E50E941F33882319F08D
:1030A0000E948D3201C060E080E090E0A8ECB2E4C4
:1030B00088A799A7AAA7BBA780E090E0A0EAB0E400
:1030C0008CA39DA3AEA3BFA3613019F0623039F089
:1030D00029C0BE016C5D7F4FCE01099644C0298591
:1030E0003A854B855C856091040A7091050A809150
:1030F000060A9091070A0F94E3096B017C0120E016
:1031000030E048E453E40F94AA0587FD06C0C12CC3
:10311000D12C88E4E82E83E4F82EC8A2D9A2EAA232
:10312000FBA21CC0E984FA840B851C85A090040ACC
:10313000B090050AC090060AD090070A9501A60132
:10314000B701C8010F94090C181614F07501860117
:10315000C701D80188A399A3AAA3BBA3BE016C5D34
:103160007F4FCE0180960E94A3BD9E01285D3F4FF8
:1031700044E05AE0BE016B5F7F4FCE0101960E9492
:10318000BEBC0C94182D0E9473AB0C94182D0E9499
:103190004A730C94182DC090FC09D090FD09E09062
:1031A000FE09F090FF0988E50E941F33811109C0D4
:1031B00020E030E040EF51E4C701B6010F94E3098D
:1031C00002C00E94BD3268A379A38AA39BA3C090CA
:1031D000000AD090010AE090020AF090030A89E503
:1031E0000E941F33811109C020E030E048E452E41E
:1031F000C701B6010F94E30902C00E94BD326B0102
:103200007C0169837A838B839C8388A099A0AAA080
:10321000BBA024EF3DEF4FEE51E4C501B4010F9484
:10322000090C87FF02C00C94182D22E430E048E41A
:1032300053E4C501B4010F94AA05181614F40C94B4
:10324000182D2AEF3EEF47E452E4C701B6010F9470
:10325000090C87FF02C00C94182D22E430E048E4EA
:1032600053E4C701B6010F94AA05181614F40C9480
:10327000182D0C94242D81E0809305040C94182DB6
:103280000E94494A13E9212E12E0312E01ECC02E92
:1032900005E1D02EE12CF12C00E010E01CA6D101BC
:1032A0008D911D010E941F33882309F451C00E9493
:1032B000BD324B015C010330110559F0F701E858AC
:1032C000FB4E20813181428153810F94E2094B01F1
:1032D0005C01F701E450F64F208131814281538136
:1032E000C501B4010F94E2092B013C012DEB37E33A
:1032F00046E855EB0F94090C87FD0AC02DEB37E328
:1033000046E855E3C301B2010F94AA05181604F567
:103310000330110559F48092080A9092090AA0928C
:103320000A0AB0920B0AB1E0BCA712C0A301920135
:10333000F60160817181828193810F94E309D60146
:103340006D937D938D939C931397C8010E9480BECB
:103350000F5F1F4FB4E0CB0ED11CE4E0EE0EF11C6A
:103360000430110509F09BCFFCA5F1110E94E35830
:103370000E94D2C20C94182D80910902882311F466
:103380000C94182D89E40E941F33182F882321F0F4
:103390000E948D32E62E01C0E12C8AE40E941F3388
:1033A000082F882331F00E948D32F62E111104C0AF
:1033B0000BC0F12C1123C1F021E02E1510F00C945C
:1033C000362FEFE1F2E004C031E03F15D0F30CC03E
:1033D00084918F010F5F1F4F882311F40C94182DD7
:1033E0000E945431F801F4CF0E942B331123F1F0E5
:1033F00020917615309177154E2D4203B001439FF1
:10340000700D11248091721590917315680F791FBA
:10341000072E000C880B990B0F94B0056093200ABF
:103420007093210A8093220A9093230A0023F1F0DB
:1034300020917815309179155F2D5203B001539F7B
:10344000700D11242091741530917515620F731F42
:10345000072E000C880B990B0F94B0056093240A7B
:103460007093250A8093260A9093270A80E50E948C
:103470001F33882319F00E94AE3203C080E50E94FA
:10348000F032882381F11123B1F020E030E040EFE9
:1034900051E46091200A7091210A8091220A909152
:1034A000230A0F94E2096093200A7093210A809303
:1034B000220A9093230A0023B1F020E030E048E490
:1034C00052E46091240A7091250A8091260A909115
:1034D000270A0F94E2096093240A7093250A8093C7
:1034E000260A9093270A86E40E941F338823D9F086
:1034F0000E94BD326B017C0120E030E0A9010F94F5
:10350000090C181684F420E030E040E752E4C701CB
:10351000B6010F94BF0A6093830270938402809374
:103520008502909386020E94177B0C94182D80913F
:10353000680E9091690E8537910509F4F7C40CF077
:10354000C9C08C34910509F4C2C30CF056C089314E
:10355000910509F4E5C21CF58431910509F470C2A6
:103560007CF48131910509F460C22CF4029708F4CF
:10357000D2C10C94182D429709F472C40C94182DE2
:103580008631910509F4A5C20CF49FC287319105DB
:1035900009F4A5C2489709F4B8C20C94182D8F31CC
:1035A000910509F42BC394F48B31910509F4CCC235
:1035B0000CF4BCC28C31910509F4CAC24E9711F0CB
:1035C0000C94182D0E94E26F0C94182D8A329105EC
:1035D00009F418C32CF4809709F4C4C20C94182D74
:1035E0008133910509F44EC38B34910511F00C948D
:1035F000182D0E94C8EC0C94182D8936910509F4F9
:10360000D5C38CF58435910509F42AC4E4F48135D9
:10361000910509F402C44CF48D34910511F00C9419
:10362000182D0E9420890C94182D8235910509F4DB
:1036300013C48335910511F00C94182D81E080930B
:1036400004040C94182D8635910509F45BC40CF420
:103650003EC48C35910509F45FC48836910509F4A0
:103660003AC30C94182D8E36910509F48BC39CF443
:103670008B36910509F4CDC30CF4C7C38C36910584
:1036800009F488C38D36910511F00C94182D0E9411
:10369000B4C50C94182D8137910509F483C36CF4DB
:1036A0008F36910509F472C38037910511F00C949F
:1036B000182D89ED92E00E94C9CF8237910509F457
:1036C0002FC48337910511F00C94182D0E948BC2E2
:1036D0000C94182D8D32A1E09A0711F40C94BA23A2
:1036E0000CF07AC0893C910509F484C59CF58A37B1
:1036F000910511F40C94562AACF48737910509F41E
:1037000061C40CF41CC48837910509F4C3C489371B
:10371000910511F00C94182D1092E20F1092E10F08
:103720000C94182D8139910509F4BBC44CF48C38E4
:10373000910511F00C94182D0E94F1C40C94182DD1
:103740008B39910509F43AC3883C910509F40AC5FF
:103750000C94182D833D910509F479C644F58C3CF1
:10376000910509F47FC57CF48B3C910511F00C9414
:10377000182D62E8E62E65E1F62E03E912E074E00A
:10378000D72ED00E60C58D3C910509F4D7C58E3C6F
:10379000910511F00C94182D43E9C42E42E0D42E6B
:1037A00059E9E52E5CE0F52E00E010E03EC68D3DC7
:1037B000910509F43CC734F48C3D910509F428C700
:1037C0000C94182D823E910509F47BC78C329140F0
:1037D00009F4A6C70C94182D8C3AF1E09F0711F458
:1037E0000C946B28E4F5813931E0930711F40C94C3
:1037F000D427C4F48F3251E0950711F40C94B0240F
:1038000014F40C9459248336B1E09B0711F40C9402
:103810009D2C8039914011F00C94182D0E94494A3A
:103820000C94182D8A39F1E09F0709F4B7C254F4BB
:103830008239914011F00C94182D80E00E94F4BD63
:103840000C94182D843A41E0940711F40C94D82775
:10385000853A914011F40C94DB270C94182D833594
:10386000A3E09A0711F40C945C29ECF4853FE1E0A5
:103870009E0711F40C944A294CF4843F914011F0B6
:103880000C94182D0E94308E0C94182D863F31E038
:10389000930711F40C944D29873F914011F40C9437
:1038A00050290C94182D803953E0950711F40C948D
:1038B000092A2CF58A38B3E09B0711F40C94B2293D
:1038C0008F38934011F00C94182D69E373E083E86E
:1038D00093E10E943EE16FE373E086E393E10E948F
:1038E0003EE165E473E089EE92E10E943EE16BE423
:1038F00073E08CE992E10E943EE10C94182D803A2D
:10390000F3E09F0709F46DC1873E934011F40C94D6
:10391000B42C0C94182DA090660EB090670E80E524
:103920000E941F33882359F00E9422316B017C01D1
:1039300011E0672B682B692B31F410E004C010E014
:10394000C12CD12C760183E50E941F338823F1F02E
:103950000E94BD3220E030E04AE754E40F940F06A5
:103960000F942C0B6B017C01111112C0672B682B7B
:10397000692B71F4A114B10459F0D5018C918823FD
:1039800039F061E0C5010E944F6307C0112391F334
:1039900060E08FE592E00E94316383E090E09093D5
:1039A000020F8093010F81E08093530C0E94494ADB
:1039B0000E944931C114D104E104F104E9F080917D
:1039C0000B0F90910C0FA0910D0FB0910E0FC80E20
:1039D000D91EEA1EFB1E0E94EBC9DC01CB018C192B
:1039E0009D09AE09BF09B7FF1CC08091530C882305
:1039F000C1F00E943778EFCF8091530C882319F0E3
:103A00000E943778F9CF809101109091021060E008
:103A1000029719F48DE492E002C08EE392E00E94D6
:103A200031631092530C0C94182D60E082E792E001
:103A30000E9431635F988A988C9812980C94182D84
:103A4000EAE8F2E084918F010F5F1F4F882321F095
:103A50000E945431F801F6CF1092971210929612EC
:103A600040E050E0BA0182E490E10E94D9E18BE1AC
:103A7000E2E4F0E1DE01159601900D928A95E1F7FE
:103A800080914010909141109C838B838DEB92E04C
:103A90009A83898340E050E0BE016F5F7F4F8FEDD6
:103AA00093E00E94DB8BCE0101960E941DE1EBE7C3
:103AB000F2E084918F010F5F1F4F882311F40C9463
:103AC000182D0E945431F801F4CF0E9400570C9435
:103AD000182D10921110109212100C94182DE091C4
:103AE000660EF091670E8081882329F0803209F4F8
:103AF00010823196F8CF40E061E08091660E90919F
:103B0000670E0E94B9530C94182D809112108823CF
:103B100019F081E0809311100E94C8EC0C94182DCC
:103B2000109211100E9408ED0C94182D8091121023
:103B3000882311F40C94182D83E50E941F33811102
:103B40000C94772D0C94182D0E9419710C94182D3B
:103B500040E060E08091660E9091670E0E94B9533C
:103B60000C94182D8091111081110E94494A809166
:103B70001210882311F40C94182D80E50E941F3335
:103B8000882319F00E94AE3203C080E50E94F03213
:103B9000182F482F61E08091660E9091670E0E9469
:103BA000B95383E50E941F33882381F00E948D3230
:103BB000AB01BC0140938D1250938E1260938F1213
:103BC000709390128CED91E10E94D9E180911210D6
:103BD000882319F081E08093111011110C94182D95
:103BE0009BCF8091660E9091670E21E0209310107C
:103BF00040E060E00E94B9530C94182D0E94136FAE
:103C00000C94182D83E50E941F33882311F40C9423
:103C1000182D0E949D32E82E80E50E941F338823D4
:103C200041F00E948D328B0177FF02C00C94182D59
:103C300002C00DE010E0902FE4E0F4E088E28E0F87
:103C40002491921729F031968E13FACF0C94872D78
:103C5000E0E9F7E184918F010F5F1F4F882321F086
:103C60000E945431F801F6CFEBE9F2E084918F0124
:103C70000F5F1F4F882311F40C94182D0E945431AC
:103C8000F801F4CFF090000481E0F826F0920004EF
:103C9000E5EBF2E084918F010F5F1F4F882321F045
:103CA0000E945431F801F6CFF11003C0EFEAF2E0C0
:103CB00002C0EAEAF2E084918F010F5F1F4F882370
:103CC00011F40C94182D0E945431F801F4CF0E9485
:103CD00008ED0C94182D88E690E00E94C1BE811179
:103CE0000C94182D80918D1483FF02C00C94182D14
:103CF00083E50E941F33882309F440C00E94BD322F
:103D00000F94270B70937B0C60937A0C80E00E94D9
:103D1000A9880E94BD3220E030E04AEA52E40F94C4
:103D2000AA0518163CF00E94208960E087EC92E01A
:103D30000E9431630E94BD3220915D0F30915E0F71
:103D400040915F0F5091600F0F94090C1816B4F456
:103D50008DE693E09F938F9380915C0F90E00196A6
:103D60009F938F9380EC92E09F938F931F920E947A
:103D7000A85A0FB6F894DEBF0FBECDBF0E9440B860
:103D80000C94182D0E94A4C50C94182D0E942DC5CA
:103D90000C94182D10928E020C94182D0E944AC279
:103DA0000C94182D0E9403C50C94182D0E94F66ED9
:103DB0001092020F1092010F0C946A2F83E50E945B
:103DC0001F33882311F40C94182D0E949D32182F54
:103DD0008D3308F01CE31093070F0E94EBC96B01B1
:103DE0007C01212F30E0A8EEB3E00F94D309C60E7A
:103DF000D71EE81EF91EC092030FD092040FE09266
:103E0000050FF092060F0C94182D0E94CB6E0C94A7
:103E1000182D0E94B66E0C94182D0E94F4880E94F2
:103E2000494A0E940D7B1092750C1092740C1092EE
:103E3000770C1092760C1092790C1092780C68EE38
:103E400073E080E090E00E947C6260E082EE92E0AD
:103E50000E9431630C94182D109204040C94182DB8
:103E600083E50E941F338823A1F00E94BD3220E029
:103E700030E04AE754E40F940F060F942C0B609344
:103E800028027093290280932A0290932B020C94AB
:103E9000182D88E50E94F03281110C94A52D89E53A
:103EA0000E94F03281110C94A52D8AE50E94F03217
:103EB00081110C94A52D85E40E94F03281110C949F
:103EC000A52D0E94494A0E940D7B0C94182D83E574
:103ED0000E94F032882311F40C94182D0E94BD32F8
:103EE00020E030E04AE754E40F940F060F942C0BC7
:103EF00060930F0F7093100F8093110F9093120F18
:103F00000C94182D64E670E080E090E00E94B3C944
:103F10000E94F2490C94182D0E9453C40C94182D41
:103F20000E94494A0E94D2C20C94182D60E08091F0
:103F3000660E9091670E0E944F630C94182D85E4D5
:103F40000E941F33882319F00E94AE3203C085E41B
:103F50000E94F032882361F0E8E9F0E284918F0159
:103F60000F5F1F4F882321F00E945431F801F6CFD4
:103F700081E40E941F33882319F00E94AE3203C0EF
:103F800081E40E94F032882361F0E2EFF2E0849154
:103F90008F010F5F1F4F882321F00E945431F801D9
:103FA000F6CF0091660E1091670ED8018D918D01AC
:103FB000882319F00E945431F8CF8AE00E945431CE
:103FC0000C94182DEEE0F3E084918F010F5F1F4FEA
:103FD000882321F00E945431F801F6CFE6E0F3E0A7
:103FE00084918F010F5F1F4F882321F00E9454316D
:103FF000F801F6CF8091060181FF03C00AE513E0C6
:1040000002C00FE513E0F80181918F01882319F0B8
:104010000E945431F8CF8AE00E945431EEEFF2E072
:1040200084918F010F5F1F4F882321F00E9454312C
:10403000F801F6CF8091030181FF03C00AE513E088
:1040400002C00FE513E0D8018D918D01882319F08E
:104050000E945431F8CF8AE00E945431E6EFF2E03A
:1040600084918F010F5F1F4F882321F00E945431EC
:10407000F801F6CF1E9B03C00AE513E002C00FE56E
:1040800013E0F80181918F01882309F496CF0E94F3
:104090005431F7CF81E08093E20F8093E10F0C94CD
:1040A000182D83E50E941F33882319F00E948D325A
:1040B00002C060E070E08B01112702301105D4F0DE
:1040C000E0E9F7E184918F010F5F1F4F882321F012
:1040D0000E945431F801F6CFE8E2F3E084918F01B9
:1040E0000F5F1F4F882311F40C94182D0E94543138
:1040F000F801F4CF88E40E941F338823A9F00E94BE
:104100008D326A3A71053CF06530F1E07F072CF0A2
:1041100064E071E002C06AEA70E0F801EE0FFF1F90
:10412000E458F34F7183608386E40E941F33882331
:1041300011F40C94182D0E948D32000F111FF801FC
:10414000E058F34F718360836F3F710519F014F0ED
:104150006FEF70E077FF02C060E070E07183608312
:104160000C94182D88EC90E00E94C1BE81110C9433
:10417000182D84E40E94F0328823C1F10E94BD32E0
:1041800011E020E030E0A9010F94AA05811101C0DF
:1041900010E010935814112349F10E94BD32E091B0
:1041A0005C0F24E0E29FF0011124EC5AFB4E608387
:1041B00071838283938320E030E0A90160915414DD
:1041C0007091551480915614909157140F94AA052C
:1041D00081110CC080E090E0A0EEBFE38093541406
:1041E00090935514A0935614B09357140E945F3FB8
:1041F0000C94182DE2E9EE2EE5E1FE2E03E912E023
:10420000F4E0DF2ED00ED8018D918D010E94F032A6
:10421000882349F00E94BD320F942C0BF701608374
:10422000718382839383F4E0EF0EF11CD012EBCF05
:104230000E9470B80C94182DF4E0EF0EF11CD0160B
:1042400011F40C94182DD8018D918D010E94F0323B
:10425000882391F30E94BD32F701608371838283CA
:104260009383EACF83E50E94F0328823D9F00E943D
:10427000BD32AB01BC014093AA155093AB156093BE
:10428000AC157093AD154093A2155093A315609390
:10429000A4157093A51584EA93E00E94DC518AE08E
:1042A0000E94543180E50E94F032882399F00E94E8
:1042B000BD32AB01BC014093AA155093AB1560937E
:1042C000AC157093AD1587E893E00E94DC518AE04D
:1042D0000E94543182E50E94F032882399F00E94B6
:1042E000BD32AB01BC014093A6155093A715609356
:1042F000A8157093A91588E693E00E94DC518AE026
:104300000E94543184E50E94F032882311F40C9409
:10431000182D0E94BD32AB01BC014093A2155093F1
:10432000A3156093A4157093A5158AE493E00E94E9
:10433000DC518AE00E9454310C94182D83E50E94D0
:10434000F032882351F00E94BD3260937E15709345
:104350007F15809380159093811584E50E94F0323B
:10436000882351F00E94BD3260937A1570937B15BB
:1043700080937C1590937D1582E40E94F03288230F
:1043800051F00E9422316093891470938A148093B3
:104390008B1490938C1488E50E94F032882351F09E
:1043A0000E94BD326093AE157093AF158093B01527
:1043B0009093B11589E50E94F032882351F00E9454
:1043C000BD326093B2157093B3158093B41590937A
:1043D000B5158AE50E94F032882351F00E94BD3263
:1043E0006093B6157093B7158093B8159093B9156F
:1043F00085E40E94F032882311F40C94182D0E9459
:10440000BD326093BA157093BB158093BC15909321
:10441000BD150C94182D0F5F1F4FF4E0EF0EF11C2B
:104420000330110511F40C94B819D6018D916D016A
:104430000E94F032882379F30E94BD32F701608335
:10444000718382839383C8010E9480BEE4CFE8E930
:10445000F0E284918F010F5F1F4F882321F00E94AB
:104460005431F801F6CF83E50E94F032882321F021
:104470000E94AE3280938B02E4EFF3E084918F01CF
:104480000F5F1F4F882321F00E945431F801F6CFAF
:1044900080918B02811103C0E0EFF3E002C0ECEEEB
:1044A000F3E084918F010F5F1F4F882321F00E945A
:1044B0005431F801F6CFE4EEF3E084918F010F5F01
:1044C0001F4F882321F00E945431F801F6CF20912C
:1044D00078143091791440917A1450917B14609142
:1044E00063147091641480916514909166140F9414
:1044F000E309AB01BC0182EE93E00E94DC51209104
:104500007C1430917D1440917E1450917F14609101
:104510006714709168148091691490916A140F94D3
:10452000E309AB01BC018FED93E00E94DC512091C7
:1045300080143091811440918214509183146091C1
:104540006B1470916C1480916D1490916E140F9493
:10455000E309AB01BC018CED93E00E94DC51E4ED7A
:10456000F3E084918F010F5F1F4F882321F00E9499
:104570005431F801F6CF209178143091791440919C
:104580007A1450917B14609173027091740280913F
:104590007502909176020F94E309AB01BC0182EDA4
:1045A00093E00E94DC5120917C1430917D14409165
:1045B0007E1450917F1460917702709178028091FF
:1045C000790290917A020F94E309AB01BC018FEC60
:1045D00093E00E94DC51209180143091811440912D
:1045E00082145091831460917B0270917C028091BF
:1045F0007D0290917E020F94E309AB01BC018CEC2B
:1046000093E00E94DC518AE00E9454310C94182DF2
:1046100083E50E941F33882311F40C94182D0E9407
:104620008D3270938D0260938C020C94182D8DED59
:1046300090E00E94C1BE81110C94182D83E50E9468
:104640001F33882311F40C94182D00915C0F10E097
:104650000E948D32000F111FF801EF58FD4F71833A
:10466000608380915C0F90E08C01000F111F000FA0
:10467000111F980123593D4F7901880F991FFC01A3
:10468000EF58FD4F60817181072E000C880B990B4C
:104690000F94B0052AE037ED43E25CE30F940F0678
:1046A000F801E15AFB4E20813181428153810F9400
:1046B0000F06D7016D937D938D939C9313970C9464
:1046C000182D80E50E94F032882311F40C94182DE7
:1046D0000E948D326B017C0183E50E941F33882389
:1046E00021F00E948D328B0102C00FEF1FEFC80135
:1046F0000196039710F00C94182DD7FE02C00C946D
:10470000182D9C2DE4E0F4E088E28E0F249192179E
:1047100011F40C94182D31968E13F8CF0C943C2F75
:1047200083E50E941F33882319F00E948D3202C056
:1047300064E071E079A368A380E50E941F338823B9
:1047400039F00E948D326938B3E17B0730F402C042
:1047500068EE73E07A83698304C088E893E19A8302
:104760008983BE01605E7F4FCE0101960E94DF8A81
:104770000C94182D85E40E941F33811110C080E530
:104780000E94F032882391F00E94BD326093670C42
:104790007093680C8093690C90936A0C07C00E9418
:1047A0009D32882361F3E0E9F7E172C089E40E9459
:1047B000F032882381F00E94BD322CEA35EC47E2CA
:1047C0005EE30F940F0660936F0C7093700C8093F0
:1047D000710C9093720C84E40E94F032882381F073
:1047E0000E94BD322CEA35EC47E25EE30F94BF0A2B
:1047F00060936B0C70936C0C80936D0C90936E0CAB
:10480000E8E9F0E284918F010F5F1F4F882321F0C8
:104810000E945431F801F6CF4091670C5091680C1A
:104820006091690C70916A0C84E394E00E94DC5101
:104830002CEA35EC47E25EE360916F0C7091700CEE
:104840008091710C9091720C0F94BF0AAB01BC0166
:1048500080E394E00E94BF512CEA35EC47E25EE32E
:1048600060916B0C70916C0C80916D0C90916E0C42
:104870000F940F06AB01BC018CE294E00E94BF5183
:104880008AE00E9454310C94182D0E945431F80192
:1048900084918F010F5F1F4F8111F7CF08E713E05D
:1048A000F80181918F01882309F487CB0E9454314C
:1048B000F7CF83E50E94F032182F882371F00E9411
:1048C000BD320F94270B709388026093870221E01A
:1048D000672B09F020E02093881480E50E94F032D5
:1048E000882361F02091870230918802232B11F0F8
:1048F0000E94AE32809388140C94182D11110C94E0
:10490000182DE8E9F0E284918F010F5F1F4F882393
:1049100021F00E945431F801F6CF80918814811162
:1049200003C069E673E002C06CE573E08DE494E0D7
:104930000E9418B860918702709188028CE394E01D
:104940000E94FFB7E8E3F4E084918F010F5F1F4FEF
:10495000882311F40C94182D0E945431F801F4CFDF
:1049600085E40E941F33882321F00E948D327B0151
:1049700002C0E12CF12C83E40E941F33882331F024
:104980000E948D3269966FAF699704C025E06996E1
:104990002FAF699785E50E941F33882319F00E9485
:1049A000AE3203C085E50E94F032A5968FAFA59781
:1049B000F7FC07C0812C912CB6E1AB2EB3E4BB2EE3
:1049C00006C0812C912CACE8AA2EA2E4BA2E83E575
:1049D0000E941F33882321F00E94BD324B015C01ED
:1049E000E114F10411F410925C0F0E94EBC92B0149
:1049F0003C01E11003C009E813E00BC00CE913E02F
:104A0000D8018D918D01882309F4D7CA0E945431B1
:104A1000F7CFF80181918F01882319F00E9454315A
:104A2000F8CFC501B4010F94270B072E000C880B9B
:104A3000990B0F94B0056CAB78AF8CAF21969FAFFC
:104A40002197A3019201205E314B4F4F5F4FE196BA
:104A50002CAF3DAF4EAF5FAFE1978AE00E9454317B
:104A60000E94F4888FE780935B0F81E080938E0231
:104A7000A0964CAE5DAE6EAE7FAEA097A9964CAE42
:104A80005DAE6EAE7FAEA9976C961FAE6C97AD967D
:104A90001CAE1DAE1EAE1FAEAD9729961FAE299758
:104AA00030E42A963FAF2A974CE12B964FAF2B97D5
:104AB00056E42C965FAF2C972D961FAE2D972E9611
:104AC0001FAE2E972F961FAE2F9760961FAE609742
:104AD00068961CAE1DAE1EAE1FAE689764961CAEE7
:104AE0001DAE1EAE1FAE6497C12CD12C7601FFE720
:104AF0008F2E912CA12CB12C8FE790E0A0E0B0E09C
:104B000088AB99ABAAABBBABA4961CAE1DAE1EAED8
:104B10001FAEA49791E06B969FAF6B9726961FAE42
:104B20001EAE269710E0212C312C00E06996AFAD27
:104B300069970A2E000CBB0B6A96BFAFAEAF6A979F
:104B400080918E02882309F4E7C00E94EBC96CA70C
:104B50007DA78EA79FA78091590F882309F4BEC017
:104B60000E940B8910915D0F20905E0F30905F0FB7
:104B70000091600F212F322D432D502F2D966FADB8
:104B80002D972E967FAD2E972F968FAD2F976096EF
:104B90009FAD60970F94AA0587FF0CC02D961FAF9D
:104BA0002D972E962FAE2E972F963FAE2F9760966D
:104BB0000FAF6097212F322D432D502F29966FADC7
:104BC00029972A967FAD2A972B968FAD2B972C96F7
:104BD0009FAD2C970F94090C181664F429961FAFFB
:104BE00029972A962FAE2A972B963FAE2B972C9675
:104BF0000FAF2C976B96BFAD6B972CA938AD4CAD12
:104C000021965FAD2197612F722D832D902FBB23AD
:104C100009F449C00F94090C18160CF05FC04CA59C
:104C20005DA56EA57FA54419550966097709DB01C5
:104C3000CA0188589341A109B109B7FD4FC088A99D
:104C400099A9AAA9BBA988199909AA09BB09B59567
:104C5000A7959795879580935B0FA4964CAF5DAF12
:104C60006EAF7FAFA497ECA92D96EFAF2D97F8AD5F
:104C70002E96FFAF2E972CAD2F962FAF2F97219604
:104C80003FAD219760963FAF60978CA59DA5AEA5DF
:104C9000BFA5A0968CAF9DAFAEAFBFAFA0976B96F0
:104CA0001FAE6B971BC00F94AA0587FF17C08CA57A
:104CB0009DA5AEA5BFA5A0962CAD3DAD4EAD5FADFB
:104CC000A097821B930BA40BB50BAC01BD014858F8
:104CD00053416109710977FD01C055C720E030E0FB
:104CE00040EA51E46CA978AD8CAD21969FAD219737
:104CF0000F94E3099B01AC01612F722D832D902F3E
:104D00000F94090C18167CF4E8E5F5E084918F0106
:104D10000F5F1F4F811103C00E94F48889C60E9453
:104D20005431F801F3CF8CA59DA5AEA5BFA5A996DA
:104D30002CAD3DAD4EAD5FADA997821B930BA40B7F
:104D4000B50BB7FD94C00E9432878AE00E945431AF
:104D50008CA59DA5AEA5BFA58053984FAF4FBF4F63
:104D6000A9968CAF9DAFAEAFBFAFA9976C969FAD24
:104D70006C9791115FC0AD962CAD3DAD4EAD5FAD62
:104D8000AD97612F722D832D902F0F94090C18165B
:104D9000E4F520E030E040E551E46CA978AD8CAD5D
:104DA00021969FAD21970F94E2099B01AC01A1E0F0
:104DB0006C96AFAF6C97612F722D832D902F0F944F
:104DC000090C18161CF06C961FAE6C9720E030E0B2
:104DD00040E050E4612F722D832D902F0F94E30952
:104DE000AD966CAF7DAF8EAF9FAFAD972CA53DA5B7
:104DF0004EA55FA5205E314B4F4F5F4FE1962CAF24
:104E00003DAF4EAF5FAFE19732C08CA59DA5AEA57B
:104E1000BFA5E1962CAD3DAD4EAD5FADE197821BD8
:104E2000930BA40BB50BB7FD22C04AE355E069E430
:104E300075E01AC020E030E040EA51E46CA978AD9A
:104E40008CAD21969FAD21970F94E2099B01AC0197
:104E5000612F722D832D902F0F94AA0587FF07C015
:104E60004AE155E06AE275E080E00E94C3488CA503
:104E70009DA5AEA5BFA5880F991FAA1FBB1FA09611
:104E80002CAD3DAD4EAD5FADA097821B930BA40B37
:104E9000B50B84199509A609B70981389F44A24129
:104EA000B10568F0ECEFF4E084918F010F5F1F4FC4
:104EB000882309F431CF0E945431F801F5CF2696AA
:104EC0004EAD5FAD26976A968EAD9FAD6A978417FB
:104ED00095070CF066C0EFE9F4E084918F010F5F55
:104EE0001F4F882321F00E945431F801F6CFB701FB
:104EF000A6018AE894E00E94DC518AE00E945431C5
:104F000064964CAD5DAD6EAD7FAD649785E794E082
:104F10000E94DC518AE00E94543168964CAD5DAD30
:104F20006EAD7FAD689780E694E00E94DC518AE028
:104F30000E945431A5969FADA597992309F478C591
:104F4000C092670CD092680CE092690CF0926A0CE7
:104F50002CEA35EC47E25EE364966CAD7DAD8EAD38
:104F60009FAD64970F940F0660936F0C7093700C55
:104F70008093710C9093720C2CEA35EC47E25EE35F
:104F800068966CAD7DAD8EAD9FAD68970F94BF0AEE
:104F900060936B0C70936C0C80936D0C90936E0C03
:104FA00047C50E945F63CCCD81E00E94F4BD40C53F
:104FB0000E94AFC33DC589E40E941F33882321F0BE
:104FC0000E948D32162F01C01FEF8AE40E941F330A
:104FD000882321F00E948D32062F01C00FEF8AE551
:104FE0000E94F032F82E811105C081E50E94F03256
:104FF000D82E01C0D12C17FD02C007FF03C0E0E985
:10500000F7E105C0F1101AC0D11018C0F8CF849193
:105010008F010F5F1F4F882321F00E945431F80148
:10502000F6CFEBEEF5E084918F010F5F1F4F8823E1
:1050300009F4FEC40E945431F801F5CF123018F083
:10504000E0E9F7E106C00230D8F716C00E945431FB
:10505000F80184918F010F5F1F4F8111F7CFECECA6
:10506000F5E084918F010F5F1F4F882309F4E0C49E
:105070000E945431F801F5CFE12E110FFF08002EE8
:10508000000C110B0E94BD32D701AA0FBB1FDD20FF
:1050900071F0FD01E00FF11FEE0FFF1FEE0FFF1F7C
:1050A000EE59FA4E208131814281538103C020E0C4
:1050B00030E0A9010A0F1B1F000F111F000F111F65
:1050C0000E591A4E0F94E309D8016D937D938D9379
:1050D0009C931397ADC40E944DE98111A9C42CE99A
:1050E000822E2AE2922EECEFF9E0FDA7ECA79E01BA
:1050F0002F5F3F4F590105EF1AE2190133E0300FDE
:1051000038ABF4016591759185919491ACA5BDA5DD
:10511000CD90DD90ED90FD90BDA7ACA7A7019601C5
:105120000F94E2092B013C0120E030E040EA51EC11
:105130000F94090C87FD10C020E030E040EA51E4F4
:10514000C301B2010F94AA05181634F0F101408290
:105150005182628273820DC0F80184911816B4F7EF
:10516000F7FAF094F7F8F094F101C082D182E2826C
:10517000F382D101CD90DD90ED90FD901D0120E0F6
:1051800030E040EA51ECC701B6010F94090C87FFEB
:1051900003C0E0E9F7E10BC020E030E040EA51E471
:1051A000C701B6010F94AA05181674F5F2CF8491C1
:1051B0008F010F5F1F4F882321F00E945431F801A7
:1051C000F6CFE9E2F6E084918F010F5F1F4F88234D
:1051D00021F00E945431F801F6CF61E08BE196E0B6
:1051E0000E9431630E94B28288E290E099A388A372
:1051F00088EC90E09DA38CA3BE01605E7F4FCE0142
:1052000084960E94DF8A14C4B4E08B0E911C0F5F59
:105210001F4FE8A9E01375CF99E9E92E9CE0F92E1C
:1052200000E010E0F50181919191A191B1915F01B0
:10523000F70181939193A193B1937F01C8010E94DB
:1052400080BE0F5F1F4F0330110561F70E94D2C26D
:1052500060E08BE096E00E94316383E992E09DA3D9
:105260008CA304E610E019A308A3BE016C5D7F4F78
:10527000CE0180960E94DF8A8AEB92E09DA38CA3E8
:1052800019A308A3BE016C5D7F4FCE0180960E94DA
:10529000DF8ACEC30E9448D1CBC30E9419D0C8C3B5
:1052A00083E50E94F032882321F00E94AE3291E023
:1052B00089270E942043BCC3E8E9F0E284918F0172
:1052C0000F5F1F4F882319F0EFD7F801F7CFE3E600
:1052D000F6E084918F010F5F1F4F882319F0E4D708
:1052E000F801F7CF8AE50E94F032882361F10E942D
:1052F000BD326B017C0120E030E040EA51EC0F94BC
:10530000090C87FF03C0EAE4F6E013C020E030E0B8
:1053100040EA51E4C701B6010F94AA0518169CF3A0
:10532000C0928414D0928514E0928614F09287146F
:105330000AC084918F010F5F1F4F882309F478C33F
:10534000B3D7F801F6CF4091841450918514609141
:1053500086147091871487E496E00E94DC518AE0FD
:10536000A3D766C383E9E82E82E0F82E8E010F5F93
:105370001F4F6E01F9E0CF0ED11CD7018D917D0139
:105380000E941F33882319F00E948D3202C060E012
:1053900070E0F801619371938F01EC15FD0569F7D9
:1053A00049815A8169E373E083E893E1411551052E
:1053B00019F00E942DE702C00E946EE14B815C81D2
:1053C0006FE373E086E393E14115510519F00E9404
:1053D0002DE702C00E946EE14D815E8165E473E0BD
:1053E00089EE92E14115510519F00E942DE702C0A6
:1053F0000E946EE14F8158856BE473E08CE992E185
:105400004115510519F00E942DE712C30E946EE16B
:105410000FC388E50E94F032182F89E50E94F03210
:10542000E82E8AE50E94F032F82E85E40E94F032E0
:10543000082F111108C0E11019C0F11024C081110A
:1054400045C511E007C0EE2011F0F11002C010E0D8
:1054500001C0182F69E373E083E893E10E9425E11E
:10546000E11005C0112309F42FC501C010E06FE35E
:1054700073E086E393E10E9425E1F11005C011235A
:1054800009F424C501C010E065E473E089EE92E1FF
:105490000E9425E1002339F06BE473E08CE992E18E
:1054A0000E9425E1C5C21111F7CFC2C283E50E9457
:1054B000F0328823B1F00E94AE32882379F0E7ED14
:1054C000F7E084918F010F5F1F4F882319F0ECD60E
:1054D000F801F7CF81E08093080FAAC21092080F5D
:1054E000A7C2E9EFF7E084918F010F5F1F4F882378
:1054F00019F0DAD6F801F7CF80E090E00E9406C2FA
:10550000EEECF7E084918F010F5F1F4F882319F0B5
:10551000CBD6F801F7CF81E090E00E9406C2E2EC22
:10552000F7E084918F010F5F1F4F882319F0BCD6DD
:10553000F801F7CF82E090E00E9406C2E6EBF7E0C8
:1055400084918F010F5F1F4F882319F0ADD6F801AA
:10555000F7CF83E090E00E9406C2EAEAF7E0849188
:105560008F010F5F1F4F882319F09ED6F801F7CFE8
:1055700084E090E00E9406C2EEE9F7E084918F019A
:105580000F5F1F4F882319F08FD6F801F7CF85E002
:1055900090E00E9406C2E1E9F7E084918F010F5F7D
:1055A0001F4F882319F080D6F801F7CF86E090E0EE
:1055B0000E9406C2E6E8F7E084918F010F5F1F4F5B
:1055C000882319F071D6F801F7CF87E090E00E94A8
:1055D00006C2ECE7F7E084918F010F5F1F4F88232D
:1055E00019F062D6F801F7CF88E090E00E9406C279
:1055F000E4E7F7E084918F010F5F1F4F882319F0D4
:1056000053D6F801F7CF89E090E00E9406C2E8E6A1
:10561000F7E084918F010F5F1F4F882319F044D664
:10562000F801F7CF8AE090E00E9406C2E0E6F7E0DA
:1056300084918F010F5F1F4F882319F035D6F80131
:10564000F7CF8BE090E00E9406C2E9E5F7E0849195
:105650008F010F5F1F4F882319F026D6F801F7CF6F
:105660008CE090E00E9406C2EAE4F7E084918F01AA
:105670000F5F1F4F882319F017D6F801F7CF8DE081
:1056800090E00E9406C2E2E4F7E084918F010F5F90
:105690001F4F882319F008D6F801F7CF8EE090E06D
:1056A0000E9406C2E7E3F7E084918F010F5F1F4F6E
:1056B000882319F0F9D5F801F7CF8FE090E00E9428
:1056C00006C2E9E1F7E084918F010F5F1F4F882345
:1056D00019F0EAD5F801F7CF80E190E00E9406C208
:1056E000EFE0F7E084918F010F5F1F4F882319F0DF
:1056F000DBD5F801F7CF81E190E00E9406C2E4E03B
:10570000F7E084918F010F5F1F4F882319F0CCD5EC
:10571000F801F7CF82E190E00E9406C2E3EFF6E0E5
:1057200084918F010F5F1F4F882319F0BDD5F801B9
:10573000F7CF83E190E00E9406C2EBEEF6E08491A1
:105740008F010F5F1F4F882319F0AED5F801F7CFF7
:1057500084E190E00E9406C2EBEDF6E084918F01B7
:105760000F5F1F4F882319F09FD5F801F7CF85E110
:1057700090E00E9406C2E1EDF6E084918F010F5F98
:105780001F4F882319F090D5F801F7CF80E090E003
:105790000E94E2C1EBECF6E084918F010F5F1F4F96
:1057A000882319F081D5F801F7CF81E090E00E94BD
:1057B000E2C1E6ECF6E084918F010F5F1F4F882372
:1057C00019F072D5F801F7CF82E090E00E94E2C1B3
:1057D000E1ECF6E084918F010F5F1F4F882319F0F1
:1057E00063D5F801F7CF83E090E00E94E2C1EBEBD4
:1057F000F6E084918F010F5F1F4F882319F054D575
:10580000F801F7CF84E090E00E94E2C1E5EBF6E01A
:1058100084918F010F5F1F4F882319F045D5F80140
:10582000F7CF85E090E00E94E2C1EFEAF6E08491D4
:105830008F010F5F1F4F882319F036D5F801F7CF7E
:1058400086E090E00E94E2C1EBEAF6E084918F01ED
:105850000F5F1F4F882319F027D5F801F7CF87E096
:1058600090E00E94E2C1E5EAF6E084918F010F5FCB
:105870001F4F882319F018D5F801F7CF8DE090E07D
:105880000E94E2C1EFE9F6E084918F010F5F1F4FA4
:10589000882319F009D5F801F7CF8EE090E00E9437
:1058A000E2C1E9E9F6E084918F010F5F1F4F882381
:1058B00019F0FAD4F801F7CF8FE090E00E94E2C12E
:1058C000E3E9F6E084918F010F5F1F4F882319F001
:1058D000EBD4F801F7CF80E190E00E94E2C1ECE860
:1058E000F6E084918F010F5F1F4F882319F0DCD4FD
:1058F000F801F7CF83E190E00E94E2C1E5E8F6E02D
:1059000084918F010F5F1F4F882319F0CDD4F801C8
:10591000F7CF82E190E00E94E2C1E2E7F6E08491F5
:105920008F010F5F1F4F882319F0BED4F801F7CF06
:105930008CE090E00E94E2C17BC0E0E9F7E1849155
:105940008F010F5F1F4F882319F0AED4F801F7CFF6
:10595000EBEFF7E084918F010F5F1F4F882309F46D
:1059600067C0A2D4F801F6CF81E0809309021092BB
:10597000E30983E564D6882311F0F0D502C083E5FE
:105980002FD6811155C00E94B08052C0F090680E91
:10599000FF2001F1E8E9F0E284918F010F5F1F4FD2
:1059A000882319F081D4F801F7CF84E57DD46F2DD9
:1059B00070E080E090E04AE07ED480E275D408E7B1
:1059C00013E0D8018D918D01882311F40C94DD1F13
:1059D0006BD4F7CF1092EB15E8E9F0E284918F01D8
:1059E0000F5F1F4F882319F05FD4F801F7CF609144
:1059F000EB1570E08AE098E00E94FFB78AE054D48B
:105A000017C0E8E9F0E284918F010F5F1F4F8823F0
:105A100019F04AD4F801F7CF6091090F70910A0F7D
:105A20008CE198E00E9418B882E23ED48AE03CD42F
:105A30001092020F1092010F0E9491804BC20E949F
:105A4000A2710E94177BF4CF80E00E940FBC0E94DD
:105A50009EBC85E4F4D5882311F080D502C085E48E
:105A6000BFD521E0482FBE016F5F7F4FCE018096EA
:105A70000E946AA96B017C019B01AC010F948F0C01
:105A8000811130C02CEA35EC47E257E368A179A1D7
:105A90008AA19BA10F94E309AB01BC0187E192E0CD
:105AA0000E94BF512CEA35EC47E257E369817A81C5
:105AB0008B819C810F94E309AB01BC0182E192E0F0
:105AC0000E94BF512CEA35EC47E257E3C701B6010B
:105AD0000F94E309AB01BC018DE092E00E94BF513D
